:030000000210F1FA
:0C10F100787FE4F6D8FD75816B021138A1
:1012D80020202020004E6F726D616C204D6F646578
:1012E80000536D617274204D6F64650048696768CA
:1012F800004D6964004C6F77004C75783D00427270
:10130800696768746E6573733A004C75785F5365E6
:10131800743D00536D617274204C616D703A290000
:1013280057656C636F6D65006D6164652062792037
:081338004875205869616F003F
:1011F7000352FF12D80329FF12DD0335FF12E9035B
:101207005EFF12F40326FF12F9033EFF12FD035B94
:10121700FF13010323FF13060338FF1312032FFFE6
:10122700131B032CFF13280332FF1330C100C10225
:10123700C101C1030151000655303033303000027F
:101247004B000002460000024D0000023C00000275
:101257004F00000241000002210000034300005537
:101268007F0A7E001214DD121644120F398B488A49
:1012780049894A121015121424AB2CAA2DA92E75CF
:1012880010107D027F23121382AB32AA33A9347562
:1012980010107D04E4FF1213827FD07E071214DD44
:1012A8001214247F0A7E001214DD7F007E2412159A
:1012B8004A8F3BE53BF46013E53B7005120BAD80AC
:1012C800E9E53BB401E412061E80DF120BAD80DABB
:03000B000213409D
:10134000C0E0C0D0054CE54C7002054BC394C8E525
:101350004B94004006754B00754C00C3E54C954717
:10136000E54B95465004C292800DC3E54C9547E588
:101370004B95464002D292758CFF758AF7D0D0D03B
:02138000E03259
:03001B0002144E7E
:10144E00C0E0C0D0054EE54E7002054DC3940AE5CE
:10145E004D94004006754D00754E00758D3C758B94
:06146E00B0D0D0D0E03246
:03002B000215AB10
:1015AB00C2CF20A102D20020A202D20220A002D2DE
:0215BB000132FB
:100BAD00E4F508AB2FAA30A931751010FDFF121313
:100BBD0082AB29AA2AA92B7510107D02E4FF12130E
:100BCD0082AB23AA24A9257510107D04E4FF12130E
:100BDD0082AB5BAA5CA95D7510107D06E4FF121354
:100BED00827F007E2612154A8F097F017E261215FF
:100BFD004AE509F46045E5094247EFFEEE4246E558
:100C0D004745467008AB5EAA5FA9608024E547643E
:100C1D003C4546700B750801AB26AA27A928801103
:100C2D00E547647845467013750802AB3EAA3FA9A7
:100C3D00407510107D047F58121382121572121513
:100C4D0085121598E54E6401454D7020121644121B
:100C5D000F398B488A49894AC2AB900002120B5654
:100C6D007510107D067F20121382D2AB30A20620A4
:100C7D000203020D0BE50864027003020D0BE5087B
:100C8D006401702E0508AB52AA53A9547510107D3E
:100C9D00047F58121382AB3EAA3FA9407510107DF8
:100CAD00047F58121382E4F54BF54CF546754778E1
:100CBD008030E508702C0508AB52AA53A954751065
:100CCD00107D047F58121382AB26AA27A928751010
:100CDD00107D047F58121382E4F54BF54CF54675E3
:100CED00473C7F007E2612155EAD477F007E2612A3
:100CFD001534E546FD7F017E26121534C20230A261
:100D0D00FD30A106200003020D9DE5087003020DC4
:100D1D009D6401702D1508AB52AA53A9547510107E
:100D2D007D047F58121382AB5EAA5FA96075101007
:100D3D007D047F58121382E4F54BF54CF546F547CB
:100D4D008032E5086402702C1508AB52AA53A954E1
:100D5D007510107D047F58121382AB26AA27A9287F
:100D6D007510107D047F58121382E4F54BF54CF588
:100D7D004675473C7F007E2612155EAD477F007E8F
:100D8D0026121534E546FD7F017E26121534C2006C
:100D9D0030A1FD200103020C5112166312165E12D2
:100DAD001668E4F546F547F54BF54CF54DF54EC295
:100DBD0000C202C201FF7E2412155E7D017F007EFE
:0E0DCD00241215341214247F647E000214DDFB
:1013C200EF642B701605597E0474552EF8E6B43A74
:1013D20007763074542EF806DEEF22EF642D701576
:1013E20015597E0474552EF8E6B42F0776397454D5
:0513F2002EF816DEEFED
:0113F70022D3
:1014BC00D3EF9DEE9C4007EF9DFFEE9CFE22C3EF09
:1014CC009DEE9C5008C3ED9FFFEC9EFE22E4FEFFB8
:0114DC0022ED
:060DDB008B0B8A0C890D50
:100DE100E4F50EF50F751227751310F514AB0BAA68
:100DF1000CA90D851482758300120A5324D0FFE4D7
:100E010034FFFEAC12AD13120A80EF250FF50FEE81
:100E1100350EF50EAE12AF137C007D0A120A928ECA
:100E2100128F130514E514B405C3AB48AA49A94AA6
:100E3100120B1DFDACF0B50F06E50EB5040122AF96
:100E41000FAE0E1214BC8E3C8F3DD3E53D9402E5EE
:100E51003C94005003020F38E53CC313FEE53D13FB
:100E61002550F550EE354FF54FAD42AC41AF3DAE9B
:100E71003C1214BCEF25E0FFEE33AB07FAAE3CAFFA
:100E81003D7C007D05120A80EEC4F854F0C868FC70
:100E9100EFC4540F48FDE54F1313543F7E002DF569
:100EA10082EE3CF583AE02AF037C007D03120A8023
:100EB100EE7E002582F511EE3583F510AB48AA4987
:100EC100A94A120B1DFFD3E50F9FE50E95F04026B1
:100ED100E5479511E5469510400EE5479511F54713
:100EE100E5469510F5468005E4F546F5477F3C7EDD
:100EF100001214DD803BAB48AA49A94A120B1DFF21
:100F0100C3E50F9FE50E95F05027E5472511FFE555
:100F1100463510FED3EF94C8EE9400500EE511252E
:100F210047F547E5103546F5468006754600754795
:070F3100C8853C41853D42EB
:010F38002296
:10061E00E4F509F50AAB2FAA30A931751010FDFFCC
:10062E00121382AB35AA36A9377510107D02E4FF7E
:10063E00121382AB38AA39A93A7510107D04E4FF63
:10064E00121382AB5BAA5CA95D7510107D06E4FFE8
:10065E00121382E4F551E42551FFE43428FE1215FD
:10066E004AEFF4600774552551F8A6070551E55178
:10067E00D3940540E1AB43AA44A9457510107D04FF
:10068E007F40121382121572121585121598E54EBF
:10069E006409454D7029121644120F398B488A4948
:1006AE00894AC2AB900002120B567510107D067F60
:1006BE0020121382AB43AA44A945120DDBD2AB30F4
:1006CE00A1062000030207A030A103020782E55510
:1006DE00C394354003020782E50A9405E5099400A8
:1006EE0050107F2B1213C2050AE50A70020509028B
:1006FE000782D3E50A9405E50994004024D3E50A60
:10070E009414E50994005019750802AF081508EF06
:10071E0060627F2B1213C2050AE50A70EE0509808E
:10072E00EAD3E50A9414E50994004024D3E50A942B
:10073E0032E50994005019750805AF081508EF60E9
:10074E00337F2B1213C2050AE50A70EE050980EA03
:10075E00D3E50A9432E50994004019750814AF08E0
:10076E001508EF600F7F2B1213C2050AE50A70EE13
:10077E00050980EAC200E4F54FF550F541F542ABAC
:10078E0043AA44A9457510107D047F4012138202BE
:10079E0006CDE4F509F50A30A20620020302089000
:1007AE0030A203020872E55624D0FFE55524D04F3F
:1007BE00FFE55724D04FFFE55824D04FFFE55924CD
:1007CE00D04F7003020872D3E50A9405E509940030
:1007DE0050107F2D1213C2050AE50A700205090298
:1007EE000872D3E50A9405E50994004024D3E50A7E
:1007FE009414E50994005019750802AF081508EF16
:10080E0060627F2D1213C2050AE50A70EE0509809B
:10081E00EAD3E50A9414E50994004024D3E50A943A
:10082E0032E50994005019750805AF081508EF60F8
:10083E00337F2D1213C2050AE50A70EE050980EA10
:10084E00D3E50A9432E50994004019750814AF08EF
:10085E001508EF600F7F2D1213C2050AE50A70EE20
:10086E00050980EAC202E4F54FF550F541F542ABB9
:10087E0043AA44A9457510107D047F4012138202CD
:10088E0007A5E4F509F50A20010302069C1216637A
:10089E0012165E121668E4F546F547FF7E2812150D
:1008AE005EE4F551E42551FFE43428FE74552551DC
:1008BE00F8E6FD1215340551E551D3940540E5E4F3
:1008CE00F54BF54CF54DF54EC200C202C201FF7E4E
:1008DE002412155EE4FDFF7E241215341214247FBB
:0608EE00647E000214DD2F
:1014DD00E4FDFCC3ED9FEC9E5015E4FBFA0BBB0045
:0F14ED00010AEB64794A70F50DBD00010C80E433
:0114FC0022CD
:1015CF00000000000000000000000000000000000C
:0115DF0022E9
:0E15F0007F307E02EF1FAC0670011E4C70F6BD
:0115FE0022CA
:0F15FF00D291D2901215CFC2911215CFC2902265
:0C163800C291D2901215CFD2910215CFB2
:0E160E00A2049291D2901215CFC2900215CF75
:0D000E00D2901215CFA291C2901215CF22F0
:10151B00E4FEEF25E0FF9291D2901215CFC290120C
:09152B0015CF0EBE08EC02000E03
:1014FD00E4FFD291FEEF25E0FFD2901215CFA2911D
:0D150D00E4334207C2901215CF0EBE08E86D
:01151A0022AE
:1015BD00AD071215FF7F4612151BAF0512151B0245
:0215CD001638CE
:0A1644007F011215BD7F200215BDC5
:100F39001215FF7F4712151BE4FD1214FD740B2DCA
:100F4900F8A607BD0304D2048002C20412160E0DCE
:100F5900BD03E71216381215F0AF0BEFFE7C00E463
:100F6900250CFFEC3EFEAD07FC1209997B9A7A9994
:100F79007999783F1208F71209D2AB07AA068A6154
:100F89008B627C277D10120AE7EF2430F5667C27F7
:100F99007D10AF03AE02120AE7AA04AB057C037DFC
:100FA900E8AF03AE02120AE7EF2430F5677C037D50
:100FB900E8AF03AE02120AE7AA04AB057C007D6420
:100FC900AF03AE02120AE7EF2430F5687C007D64B6
:100FD900AF03AE02120AE7AA04AB057C007D0AAF93
:100FE90003AE02120AE7EF2430F5697C007D0AAFEF
:100FF90003AE02120AE7ED2430F56AE4F56BF563F6
:0B100900756400756566FB7A00796174
:0110140022B9
:101572005389F0438901758CFF758AF7D28CD2A901
:03158200D2AF22C3
:05165E00C28CC2A922AC
:1015850053890F438910758D3C758BB0D28ED2ABC4
:03159500D2AF22B0
:05166300C28EC2AB22A3
:1015980075CC5875CA5875CD9E75CB9ED2CAD2AD3A
:0315A800D2AF229D
:05166800C2CAC2AD2260
:0D001E00E4F5E7F5E5F5E675E380F5E4228D
:0700030075E64675E6B9221F
:10154A0075E78175E5018FE48EE312000300AFE2CF
:03155A0012001E5E
:01155D00226B
:1015340075E78175E5028FE48EE38DE21200030006
:0615440012001ED2AF22CE
:10155E0075E78175E5038FE48EE312000300120038
:04156E001ED2AF22B8
:10002E0000000000000000000000000000000000C2
:10003E00000000F800000000000000333000000057
:10004E0000100C06100C060000000000000000005E
:10005E0040C07840C0784000043F04043F040400D0
:10006E00007088FC08300000001820FF211E0000E0
:10007E00F008F000E018000000211C031E211E00F5
:10008E0000F00888700000001E212324192721107B
:10009E0010160E000000000000000000000000001E
:1000AE00000000E0180402000000000718204000C5
:1000BE0000020418E00000000040201807000000B5
:1000CE00404080F0804040000202010F0102020019
:1000DE00000000F0000000000101011F01010100FD
:1000EE00000000000000000080B070000000000062
:1000FE0000000000000000000001010101010101EB
:10010E000000000000000000003030000000000081
:10011E000000000080601804006018060100000056
:10012E0000E010080810E000000F102020100F0053
:10013E00001010F8000000000020203F20200000DA
:10014E000070080808887000003028242221300032
:10015E0000300888884830000018202020110E003A
:10016E000000C02010F8000000070424243F2400E3
:10017E0000F80888880808000019212020110E00B8
:10018E0000E0108888180000000F112020110E00CA
:10019E0000380808C83808000000003F00000000C2
:1001AE000070880808887000001C222121221C0083
:1001BE0000E010080810E0000000312222110F00AC
:1001CE00000000C0C0000000000000303000000041
:1001DE0000000080000000000000806000000000B1
:1001EE0000008040201008000001020408102000CA
:1001FE004040404040404000040404040404040015
:10020E0000081020408000000020100804020100A9
:10021E00007048080808F0000000003036010000A9
:10022E00C030C828E810E0000718272423140B005C
:10023E000000C038E0000000203C230202273820D6
:10024E0008F8888888700000203F202020110E00BA
:10025E00C0300808080838000718202020100800B1
:10026E0008F808080810E000203F202020100F009A
:10027E0008F88888E8081000203F20202320180066
:10028E0008F88888E8081000203F200003000000CE
:10029E00C03008080838000007182020221E02006F
:1002AE0008F808000008F808203F210101213F202E
:1002BE00000808F8080800000020203F2020000059
:1002CE0000000808F8080800C08080807F00000049
:1002DE0008F888C028180800203F20012638200082
:1002EE0008F8080000000000203F202020203000E9
:1002FE0008F8F800F8F80800203F003F003F200003
:10030E0008F830C00008F808203F200007183F000A
:10031E00E01008080810E0000F10202020100F0039
:10032E0008F808080808F000203F2101010100002C
:10033E00E01008080810E0000F18242438504F0071
:10034E0008F8888888887000203F2000030C302031
:10035E0000708808080838000038202121221C006F
:10036E00180808F8080818000000203F20000000B8
:10037E0008F808000008F808001F202020201F00A1
:10038E000878880000C83808000007380E01000001
:10039E00F80800F80008F800033C0700073C0300CB
:1003AE00081868808068180820302C03032C302031
:1003BE000838C800C83808000000203F20000000A0
:1003CE0010080808C83808002038262120201800F8
:1003DE00000000FE020202000000007F40404000CC
:1003EE00000C30C000000000000000010638C00004
:1003FE0000020202FE000000004040407F000000AC
:10040E0000000402020204000000000000000000D0
:10041E0000000000000000008080808080808080CE
:10042E0000020204000000000000000000000000B6
:10043E0000008080808000000019242222223F20AC
:10044E0008F8008080000000003F112020110E00EF
:10045E000000008080800000000E1120202011007E
:10046E00000000808088F800000E112020103F2030
:10047E000000808080800000001F222222221300B4
:10048E00008080F0888888180020203F20200000FF
:10049E000000808080808000006B949494936000B4
:1004AE0008F8008080800000203F210000203F20BF
:1004BE0000809898000000000020203F20200000BF
:1004CE00000000809898000000C08080807F0000AF
:1004DE0008F8000080808000203F24022D3020008C
:1004EE00000808F8000000000020203F2020000037
:1004FE008080808080808000203F20003F20003F51
:10050E008080008080800000203F210000203F205E
:10051E000000808080800000001F202020201F000F
:10052E00808000808000000080FFA12020110E003E
:10053E000000008080808000000E112020A0FF802F
:10054E00808080008080800020203F2120000100DC
:10055E000000808080808000003324242424190031
:10056E00008080E0808000000000001F202000003E
:10057E008080000000808000001F202020103F207F
:10058E00808080000080808000010E30080601000F
:10059E0080800080008080800F300C030C300F00B4
:1005AE0000808000808080000020312E0E312000DF
:1005BE00808080000080808080818E70180601000F
:1005CE0000808080808080000021302C222130002D
:1005DE0000000000807C020200000000003F40404E
:1005EE0000000000FF00000000000000FF000000FF
:1005FE000002027C800000000040403F000000002E
:10060E0000060101020204040000000000000000C8
:09164E00D280D281C281C2802247
:07165700D280C281D2812282
:0B15E00012147B1215EBAF0412147BF9
:0515EB00D280C2802245
:07147400AC0712164E7F7851
:10147B00C280E4FEAD07530580BD8004D28180029B
:0E148B00C281EF25E0FFD280C2800EBE08E6CF
:011499002230
:0E161C001214741215EBE4FF1215E0021657BB
:0E162A001214741215EB7F401215E0021657D1
:10149A001214ABE4FDFCFFFE1214AB7F10E4FDFC5A
:0114AA00FE43
:1014AB00AB07AA06ED4C600302162AAF0312161CFB
:0114BB00220E
:1013F800A907ED24B0FFE433FEE4FDFC1214ABE9C9
:1014080054F0C4540F7E004410FFE4FDFC1214ABEA
:0C141800E9540FFF7E00E4FDFC0214AB61
:10142400E4F9E924B0FFE433FEE4FDFC12149AE489
:10143400F50B7D017C00E4FFFE1214AB050BE50BFC
:09144400C3948040ED09B908D9F8
:01144D00227C
:04117D008F128D132D
:10118100E4F516F9EB24E0F516E51564107066AF89
:10119100121213F8E4F975F010E516A429F582E4AA
:1011A10035F0F583E582242EF582E5833400F5835D
:1011B100E493FF7E007D017C001214AB09B908D6CF
:1011C100E51304FDAF121213F8E4F975F010E516FA
:1011D100A429F582E435F0F583E5822436F582E52C
:1011E100833400F583E493FF7E007D017C001214BB
:0511F100AB09B908D6AE
:0111F60022D6
:0A1382008F0B8D0C8B0D8A0E890F66
:10138C00E4F511AB0DAA0EA90F851182758300121D
:10139C000A53FB6020851015AD0CAF0B12117D7438
:1013AC0008250BF50BD394784007E4F50B050C05D9
:0513BC000C051180CEBC
:0113C1002209
:10101500E4FDFC7FAEFE12149A7F401214A7E4FD96
:10102500FC7FB0FE1214ABE4FDFC7F81FE1214AB15
:10103500E4FDFC7FFFFE1214ABE4FDFC7FA1FE1274
:1010450014ABE4FDFC7FA6FE1214ABE4FDFC7FA807
:10105500FE1214ABE4FDFC7F3FFE1214ABE4FDFC75
:101065007FC8FE1214ABE4FDFC7FD3FE1214ABE483
:10107500FDFCFFFE1214ABE4FDFC7FD5FE1214ABA4
:10108500E4FDFC7F80FE1214ABE4FDFC7FD8FE126C
:1010950014ABE4FDFC7F05FE1214ABE4FDFC7FD927
:1010A500FE1214ABE4FDFC7FF1FE1214ABE4FDFC73
:1010B5007FDAFE1214ABE4FDFC7F12FE1214ABE4E2
:1010C500FDFC7FDBFE1214ABE4FDFC7F30FE121449
:1010D500ABE4FDFC7F8DFE1214ABE4FDFC7F14FE3A
:0C10E5001214ABE4FDFC7FAFFE0214AB64
:1008F400020A48EC5D046005E859047003020A3EEC
:10090400120A09580460F6EC4860F2EC7004FDFE2B
:10091400FF22C860DB2481C85009C39860025006D6
:10092400020A459850CAF582E9294B4A7005AB8200
:10093400020A3475F0007C1A7880C3EF9BEE9AEDBE
:1009440099400DC3EF9BFFEE9AFEED99FDE842F04E
:10095400DC23ACF0D0E0FFD0E0FED0E0FDAB8220A1
:10096400E7101BEB60BAEC2CFCEF33FFEE33FEED2B
:1009740033FD020A20E803F830E705C0F075F00003
:10098400EF2FFFEE33FEED33FD40B830E7C280AA0F
:1009940075F020800E75F010800575F0087D007EDE
:1009A400007F003392D530D503120B48EC3340104E
:1009B400EF33FFEE33FEED33FDEC33FCD5F0ED22E7
:0E09C400E5F0247EA2D513CC92E7CDCEFF2223
:1009D200EDD2E7CD33EC3392D524814006E4FFFE1D
:1009E200FDFC22FCE4CFCECDCC24E0501174FF807C
:1009F200EDC3CC13CCCD13CDCE13CECF13CF047019
:070A0200F030D5DE020B48C5
:100A0900E9D2E7C933E833F892D5EDD2E7CD33EC33
:070A190033FC5002B2D522AC
:100A2000EC30E7100FBF000C0EBE00080DBD000437
:100A30000BEB6014A2D5EB13FCED92E7FD2274FFE3
:100A4000FCFDFEFF22E480F8A2D574FF13FC7D803C
:030A5000E480EF50
:1010FD00021268E493A3F8E493A34003F68001F28F
:10110D0008DFF48029E493A3F85407240CC8C333F3
:10111D00C4540F4420C8834004F456800146F6DFC2
:10112D00E4800B01020408102040809011F7E47E4A
:10113D00019360BCA3FF543F30E509541FFEE493B7
:10114D00A360010ECF54C025E060A840B8E493A37E
:10115D00FAE493A3F8E493A3C8C582C8CAC583CAA9
:10116D00F0A3C8C582C8CAC583CADFE9DEE780BE61
:011267000086
:100A5300BB010CE58229F582E5833AF583E0225058
:100A630006E92582F8E622BBFE06E92582F8E222A2
:0D0A7300E58229F582E5833AF583E49322BC
:100A8000EF8DF0A4A8F0CF8CF0A428CE8DF0A42E8A
:020A9000FE2244
:100A9200BC000BBE0029EF8DF084FFADF022E4CC48
:100AA200F875F008EF2FFFEE33FEEC33FCEE9DEC11
:100AB200984005FCEE9DFE0FD5F0E9E4CEFD22ED57
:100AC200F8F5F0EE8420D21CFEADF075F008EF2FA1
:100AD200FFED33FD4007985006D5F0F222C398FD92
:050AE2000FD5F0EA222F
:100AE700C2D5EC30E709B2D5E4C39DFDE49CFCEE2A
:100AF70030E715B2D5E4C39FFFE49EFE120A92C306
:100B0700E49DFDE49CFC8003120A9230D507C3E400
:060B17009FFFE49EFE2298
:100B1D00BB010A89828A83E0F5F0A3E022500687A3
:100B2D00F009E71922BBFE07E3F5F009E319228965
:0B0B3D00828A83E493F5F07401932298
:0E0B4800C3E49FFFE49EFEE49DFDE49CFC22BE
:100B5600BB010DE58229F582E5833AF583020B8F09
:100B66005007E92582F8020B86BBFE07E92582F8C5
:100B7600020B98E58229F582E5833AF583020BA1FB
:090B8600E6FB08E6FA08E6F92294
:090B8F00E0FBA3E0FAA3E0F92267
:090B9800E2FB08E2FA08E2F9228E
:0C0BA100E493FB740193FA740293F922B0
:00000001FF
